:020000040800F2
:10000000E01700207D4B0008154A0008194A000837
:1000100000000000000000000000000000000000E0
:100020000000000000000000000000001D4A000861
:1000300000000000000000001F4A0008214A0008DC
:10004000CF120008D31700088B1800088F1800087B
:100050009B2C0008EF3500085B3D00084F4200086C
:10006000874900081B4B0008274B0008CD4B0008B0
:10007000CF4B0008D14B000800000000294A0008BF
:1000800000000000D34B000800000000000000004A
:10009000D54B000800000000D74B0008D94B0008E2
:1000A000DB4B0008DD4B0008DF4B0008334A00083B
:1000B000E14B0008E34B0008E54B0008E74B000864
:1000C000FDB5B2B03A98049102A93B2288540020B1
:1000D0000D9022A8401C2F900DE00498329A904772
:1000E0000490002801D100F0F5FE0D98401C0D9001
:1000F0003398401C33903398017800290BD0252980
:10010000EBD100200790089009900A900B900C907A
:100110000021339805E00D9800F0DEFE0A00012171
:100120001143401C0278202AF8D0232A0CD02B2A15
:1001300004D02D2A05D0302A09D00BE00A00022174
:10014000EEE70A000421EBE70A000821E8E70A00CD
:100150001021E5E72A2A0FD1349A13681A681B1D6B
:10016000349C23600F92002A04D553420F930A0057
:1001700004211143441C13E000220F92654A09E058
:100180000F9B934205DA9D00EB185B001B19303B77
:100190000F93401C04782300303B0A2BF0D304005B
:1001A00020782E2803D00020C0430E9027E0641C46
:1001B00020782A2808D1349800680268001D349BF2
:1001C00018600E92641C1AE02D2802D12D22641CA6
:1001D00000E0002200200E900CE0130009D10E9BDD
:1001E0004C4DAB4205DA9D00EB185B001818303817
:1001F0000E90641C20780300303B0A2BEDD302A83C
:1002000001872578290041487844FF30401C00F0E0
:1002100049FF002801D0641C00E0002502A83A2113
:100220004554405C682804D1207868280BD16220AE
:1002300005E06C2807D120786C2804D1712002A930
:100240003A228854641C13A80690207869460870E6
:10025000601C3390684602781000253833D01C3873
:1002600000D115E2001F022800D811E2133801D195
:1002700000F05CFD093800D10AE2801E01D100F0D7
:10028000F1FD401E01D100F09EFD401E022800D865
:10029000FEE1001F01D100F096FD401F00D151E1A9
:1002A000401E01D100F042FD401E00D1F2E0C01E10
:1002B0000FD0801E01D100F039FDC01E01D100F029
:1002C00035FD00F0DAFD252013A90870012000F0AB
:1002D000DFFD349800680468001D349908600594B7
:1002E000002C00D0C2E002A83B21405C002800D1D5
:1002F000B5E00024E44306487844143000F0E0FE02
:10030000201A01D000F0E6FD00F0C3FD1046000009
:1003100044460000CBCCCC0C01236A4602A928003D
:1003200000F0A5FE002801D000F0D4FD641EF3D13A
:100330003295079D13AC002D0FD0329E227802A972
:10034000300000F083FE002802D4641C6D1EF5D13D
:100350003296002801D000F0BDFD302069460870BB
:100360000A9C002C0DDD329D01236A4602A928005B
:1003700000F07DFE002801D000F0ACFD641EF3D13A
:100380003295059C089D002D0FD0329E227802A93F
:10039000300000F05BFE002802D4641C6D1EF5D115
:1003A0003296002801D000F095FD302769460F7085
:1003B0000B9C002C0DDD329D01236A4602A928000A
:1003C00000F055FE002801D000F084FD641EF3D13A
:1003D0003295059808994418099D002D0FD0329E3A
:1003E000227802A9300000F031FE002802D4641CFB
:1003F0006D1EF5D13296002801D000F06BFD6846E5
:1004000007700C9C002C0DDD329D01236A4602A969
:10041000280000F02CFE002801D000F05BFD641ED7
:10042000F3D1329502A83821405C400700D462E63F
:100430002020694608700198002800DC5BE6019CDA
:10044000329D01236A4602A9280000F010FE002810
:1004500001D000F03FFD641EF3D132954BE63F48DA
:100460007844FF30C01F059000F013FD0E9D002D55
:1004700003D5200000F048FE09E02A0000212000FA
:1004800000F04AFE002801D0001B00E02800089080
:1004900000F0FFFC349800680268001D3499086081
:1004A0000020C0430021104002AA03C213A80590F7
:1004B000069A3C2302A803C8002904D1002802D1CF
:1004C0000E9C002C15D05B1E05072D0F3035EEB2AB
:1004D0003A2E08DAD55400090C072043090904D143
:1004E000002802D105E02735F4E7059CD518AC4279
:1004F000E9D33C20C01A0890D11805910E99884282
:1005000008DA081A0A9002A8018FA94A0A4002874D
:1005100000F0BFFC002901D400F0BBFC02A9382286
:10052000895C14220A40102A01D000F0B2FC0F9915
:10053000079A891A0A9A891A081A002801DC00F019
:10054000A8FCF1E302A83B21415C002908D000246B
:10055000E4434B487844FF302930CFE61444000090
:100560003A21405C62286AD0682819D06A2845D0B0
:100570006C2806D071284FD0742831D07A2821D029
:100580006FE0349800680168001D349A10600029FB
:100590007AD10024E4433B487844FF301738ADE675
:1005A000349800680168001D349A1060002905D154
:1005B0000024E44333487844CA309FE60D9808800D
:1005C00000F067FC349800680168001D349A1060E0
:1005D000002959D10024E4432A487844A6308DE606
:1005E000349800680168001D349A106000294BD1CE
:1005F0000024E443234878448A307FE63498006836
:100600000268001D34990860002A13D10024E443D5
:100610001C4878446E3071E6349800680268001D0A
:1006200034990860002A05D10024E4431548784431
:10063000523063E60D98C11703C200F02AFC3498CB
:1006400000680168001D349A1060002905D100245B
:10065000E4430C4878442C3050E60D98087000F0C4
:1006600018FC349800680168001D349A1060002955
:100670000AD10024E4430348784408303EE600BF32
:10068000A4420000B84200000D98086000F001FC90
:1006900034980368DB1D072083433498036003CB41
:1006A000349C236002AB03C32023C80F04D00798F7
:1006B0002D2113AB19540DE002A8008F810704D53A
:1006C00007982B2113AB195404E0C00704D50798F1
:1006D00013A90B54401C079013A8079943180593BE
:1006E00022AD02A8C0C868460078202101436846B0
:1006F0008170612909D00E98002801D5062003E0F9
:1007000003D1672901D101200E9002A803C8080077
:100710004C006415641C0ED109030CD00320089012
:10072000613A1A2A03D22349794488310FE02249D9
:10073000794484310BE0002C0ED100030CD103204E
:100740000890613A1A2A1DD31C4979446E3103225C
:10075000180000F007FD9CE301AA02A803C800F0FE
:100760000EFD02AA03C268468078612813D105985D
:1007700030210170811C059169460978612905D1F4
:10078000782104E00E4979443631E0E75821417080
:100790000798801C079002A803C893A20CCA0240C5
:1007A0000B400FD1002A0DD10024002661E100BFCB
:1007B000EFFF0000C0410000C0410000C441000044
:1007C000BC41000068468078612800D099E00E980E
:1007D000002801D5212000E0401C12901298401CF6
:1007E0002C90300039000022002300F0DDFC02A82C
:1007F00030C802D28020000645400198001F0190B9
:1008000022A90A7022A8461C2C98002832DD2C9FB1
:1008100020002900002280235B0300F0DEFC29D8A1
:100820001C2200F0F3FC04000D0000F027FD2C90CA
:10083000FF1F002F09DD00F05BFD02000B00200010
:10084000290000F0BCFD04000D00F01D07212C9ACA
:10085000002A0ADD491E08D4401E13071B0F03702F
:100860001211F5E7401E00220270491EFAD5C61D7E
:10087000002FCDDC22A82F99711A22AA551C129A9A
:100880000C00914200DD1400002C33D48C4205DAB8
:10089000411C095D082901DB0F2100E00021220035
:1008A00022AB9B1801E0641E5B1E521E1E788E4216
:1008B000F9D00F2904D1411C895C491C401C81548A
:1008C000002A04D522AD641C0198001D0190611E10
:1008D00010D46A186846007813783033DEB23A2EA6
:1008E00001DBC318C6331370491E521E0029F3D50D
:1008F000694608700E98002800D4B9E0601E0E907A
:10090000B6E07F007F08019868494843684900F0D5
:10091000E3FD019007200199401A002805DD02003F
:100920003000390000F06CFB0AE0424200206149CF
:1009300000F066FB02000B003000390000F026FEDC
:100940006A469278662A02D1019A0A3200E00622AB
:100950000E9B9A18142A00DD142222AB30241C703E
:100960005C1C02E030A803C8129A002A40DD30ABBC
:1009700003C3129230A803C800F092FC2C900646E4
:100980000834042530000A2100F0A9FD0F003000D2
:100990000A2100F0A4FD06003037601E0770300009
:1009A0000A2100F09CFD0F0030000A2100F097FDA5
:1009B0000600A41E303727706D1EE3D1083412984C
:1009C000083812900028CDDD2C9800F081FC020040
:1009D0000B0030A803C800F0F2FC0022364B00F0F8
:1009E00036FE30AA03C2C5E7FFFFFFFFFFFFFF7F10
:1009F0002F98201A22A94D1C04E0401E0199491E7F
:100A000001916D1C29783029F7D0694689786629CB
:100A100002D10199491C06E069468978652901D10E
:100A2000012100E000210E9A5418A04200DA441E71
:100A3000002C1DD4844204DA285D342801DD3921DC
:100A400000E030212200681E831801E0641E5B1E56
:100A5000521E1E788E42F9D0392902D1A95C491C58
:100A6000A954002A04D50500641C0198401C01907B
:100A7000019E1295684600786946487000F0C2FEF3
:100A8000406A0078694608700E9D20B2002804DC98
:100A90000124054878441030129068468078662812
:100AA0000CD1761C23E000BFDC3E000097750000EF
:100AB000A08601000000F03F84D797416846807807
:100AC000672844D130B20321C943884245DBA8429C
:100AD00043DA761C02A83821405C000703D420B218
:100AE000A84200DC050030B22D1A00D5002537B22F
:100AF000002F00DDB7E00898411C08913021059ACD
:100B00001154002D04DC02A83821405C000706D5F2
:100B10000898411C089169460978059A1154784251
:100B2000854200DA6E4236B270420B90AD1920B2A7
:100B3000854200DA2C0024B209942200129905980B
:100B4000089BC01800F00EFB281B0C90D6E06846EE
:100B50004078612817D170201AE020B2A84205DA47
:100B600002A93822895C090700D405006D1E00D552
:100B7000002568464078672802D16520694607E06D
:100B80004520694604E068464078412801D150205C
:100B900048700898411C089112990978059A1154D7
:100BA0001298411C002D04DC02A83822805C00074A
:100BB00019D50898421C08926A461278059B1A5467
:100BC000002D10DD641E20B2854200DA2C0022B216
:100BD0000598089BC01800F0C5FA24B208980019BF
:100BE0000890281B0B900598089940186946497889
:100BF000017031B2002903D42B214170871C03E01E
:100C00002D224270871C4E4200242CAD300008E09B
:100C10000A2100F061FC30AA03C229703098641CDC
:100C20006D1C00B20028F3DC012C08DC684640781B
:100C300020210143652902D1302038707F1C002C0F
:100C400009D1302038707F1C07E0641E2CA8005D9D
:100C5000303038707F1C002CF7DC0598089940185C
:100C6000381A09904AE020B231B288421CDA22B226
:100C700012990598089BC01800F074FA24B20898DD
:100C800000190890391B0B91002D04DC02A93822B1
:100C9000895C090706D569460978059A11540998AF
:100CA000401C09900C9529E032B212990598089BD6
:100CB000C01800F057FA0898C0190890A41B002D1E
:100CC00004DC02A93822895C090705D5411C08917A
:100CD00069460978059A115420B2854200DA2C0041
:100CE00022B21298C1190598089BC01800F03AFA70
:100CF00024B2089800190890281B0B9002A83821EC
:100D0000405C14210140102900D0C2E007980899E6
:100D100040180B994018099940180C9940180F99E0
:100D2000884200DBB5E0081A0A90B2E002AA3A2035
:100D3000105C622808D068280ED06A2814D06C286D
:100D40001DD0712810D01AE0349801680868091D78
:100D5000349B1960C0B218E0349801680868091D16
:100D6000349B196080B210E034980368DB1D0720C3
:100D700083433498036003CB349C236006E03498AB
:100D800001680868091D349B1960002102AB03C388
:100D90003820105C00075BD502A803C8002901D1E8
:100DA000002855D0684600782021014378294FD18A
:100DB000079813A930220A54401C421C07926A4625
:100DC00012780A5444E002AA3A20105C622808D043
:100DD00068280ED06A2814D06C281DD0712810D035
:100DE0001AE0349801680868091D349B196040B204
:100DF00018E0349801680868091D349B196000B236
:100E000010E034980368DB1D0720834334980360A7
:100E100003CB349C236006E0349801680868091D00
:100E2000349B1960C11702AB03C3002902DA07988B
:100E30002D2109E0108F810702D507982B2103E0AF
:100E4000C00705D50798202113AA1154401C07900C
:100E500013A80799401805906846017802A800F089
:100E60003DF816E001200790349800680168001DE5
:100E7000349A106013A801700BE0252013A90870A4
:100E80000120079068460078002802D04A700220AE
:100E900007900F980799401A0A99401A0899401A22
:100EA0000B99401A0999401A0C99401A019002A80E
:100EB0003821405C400701D5FFF73BFA2020694606
:100EC00008700198002801DCFFF733FA019C329D7D
:100ED000FFF722FA0020C04335B0F0BDF2B586B06E
:100EE000040025696F2901D1082707E00846202161
:100EF0000143782901D00A2700E010273C2603CCC3
:100F0000083C04AA03C26A46127E642A03D06A46D9
:100F1000127E692A09D1002907DA04A803C8002231
:100F20000023121A8B4104A80CC004A803C800298E
:100F30000DD100280BD1206B002808D1082F3DD1FE
:100F40003820205C000739D53B26302035E002945C
:100F5000009504A830C8761E0196200029003A00AA
:100F6000FB1700F057FC3032D0B23A280DDA009867
:100F70008255200029003A00FB1700F04BFC0400CA
:100F80000D0007D1002C05D10AE06846007E8218CA
:100F9000AF32ECE70298C068009989198842DAD329
:100FA000029C009D082F09D13820205C000705D540
:100FB000A85D302802D0761E3020A8553C20801B2A
:100FC000A061A919E160216B884206DA081A206243
:100FD000208F1C490140218710E000290ED53821BF
:100FE000615C14220A40102A08D1616B6269891A77
:100FF000226A891A081A002800DD206207B0F0BDB5
:10100000F8B50026104F04000D00009214E0C00750
:1010100007D532003B002000290000F018FB040037
:101020000D000098401000903000390032003B0065
:1010300000F00DFB06000F0000980028E7D120000B
:101040002900F4BDEFFF00000000244010B50300AC
:101050000C001100A0689847A060002804D0E06A46
:10106000401CE062002010BD0020C04310BDF8B558
:101070000024002B11D007000E0014001D00217861
:10108000B068B847B060002809D0F06A401CF06230
:101090000020641C6D1EF2D104002000F2BD00206F
:1010A000C043F9E7C9B202788A4203D0401C002A43
:1010B000F9D1002070470268531C0360117070471B
:1010C00080B5002801D100BF07A006490B68002B9E
:1010D00003D022220021984701E000F0D0FB22201B
:1010E00002BD0000D8130020636F6E7374726169D3
:1010F0006E742068616E646C65723A20626164206F
:101100006D65737361676500431C0178401C09427B
:10111000FBD1C01A70472E00C9B2521E05D3037806
:10112000401C8B42F9D1401E70470020704743009D
:1011300070B4103A03D378C9103A78C0FBD2530781
:1011400001D318C918C001D508C908C0D20704D3F3
:101150000B880380891C801C002A01D50B78037042
:1011600070BC70478B0701D18307E1D0124205D0D4
:101170000B78491C0370401C521EF9D1704710B502
:10118000144600F002F8226010BD4A0053155B1CA3
:1011900008D0520D06D003231B02FE3AD21A1305C3
:1011A000C91A70470022704730B4012464054D000D
:1011B000EC420BD85D00EC4208D80C001C436400E4
:1011C0000443144304D2994200D1904230BC70478A
:1011D000FCD08B42FAD18242F8E730B40124640596
:1011E0004D00EC420BD85D00EC4208D80C001C43CB
:1011F00064000443144304D28B4200D1824230BCC9
:101200007047FCD09942FAD19042F8E7124217D4C5
:101210000023DB435B0D9C464B005B0D06D0634512
:1012200004D09B18634502D21205891870476246A4
:10123000090D11430905002000B500BF00BF00BD26
:1012400052424B005B0DF1D05B1C5B05EED25B0D97
:10125000934102D91205891A70470BD10B031B1356
:10126000C90FC907821C002043411343E4D912056A
:101270001143E1E7C90FC9070020DDE7F4464A182A
:1012800005D200F00FF801D580174008604700F044
:1012900009F80121C907884200D908004042604787
:1012A0004A1812D2400DC90208430121C907084358
:1012B000520D40210901521A521C06D452421F32CB
:1012C00001D4D0407047C017704700207047FEE738
:1012D000010042221201D21E004207D002D4521E47
:1012E0000018FCD5C10A4005120589187047000096
:1012F0000100EED54042F446FFF7EBFF0122D20792
:10130000114360478B4200D1824205D984461000C8
:1013100062468C4619006346DF184C18640D7F0D39
:101320003AD0661C760537D0E61B352E34DCDB025E
:101330002B43DB0A0C0DC9022943C912202E0DDBF9
:101340001700203E06D01F00F741F3405F40002603
:10135000012A7741C01871410DD217E01700F741FB
:10136000F2405740F3415A40B340F3405A40002600
:10137000801859410AD3A21C52050FD0C207012F71
:10138000724117004008CB0718434908641C240524
:101390004208AF4170416141F0BC7047641C2105B7
:1013A0000020F9E76B4010E06B40ABE7F742F3D168
:1013B000E943F1E72442EFD100200021ECE7F0B44B
:1013C0000125ED070F005F40EED40C00871A9C4109
:1013D00005D2C01BA141D219634169406B40AE0ADE
:1013E000DF184C18F442E1D2640D7F0DE2D0E61B09
:1013F000362ED1DCDB022B43DB0AA4460C0DC902DE
:101400002943C90A012E28DC04D1D6075208DF0778
:101410003A435B08EF0A76429041994114D0394231
:101420003BD1B61940414941761C394204D1761C62
:10143000001849413942FAD0B9436746B74208D942
:10144000A41B24052143A7E70042EAD13642E8D194
:10145000A2E7E40AE10700209EE7202E0BDD203EF4
:101460001F00F340F7415F40012A002257417E42AE
:10147000984191410BE01700F741F2405740F3418A
:101480005A40B340F3405A407E42904199410A038A
:1014900003D2641EB619404149410027641E240549
:1014A0004208AE4178416141F0BC7047F4460028E3
:1014B00004D4494200F013F84042604740420029FA
:1014C00005D45FD000F00BF84042494260474942E2
:1014D00000F005F84942604703460B43E6D400227A
:1014E000030A8B420BD203098B4219D243088B4269
:1014F0002ED2411A00D20146524110467047FF22B7
:1015000009023FD012068B4205D3121209028B4208
:1015100001D31212090203098B4219D300E0090A10
:10152000C3098B4201D3CB01C01A524183098B42BC
:1015300001D38B01C01A524143098B4201D34B01A5
:10154000C01A524103098B4201D30B01C01A524108
:10155000C3088B4201D3CB00C01A524183088B428F
:1015600001D38B00C01A524143088B4201D34B0078
:10157000C01A5241884200D3401A5241CFD201468C
:101580001046704708B500F07FF908BDF0B40E00B2
:101590005E400125ED072E40B446AE0ADF184C1818
:1015A000F4423BD2F74241D2640D43D07F0D38D094
:1015B000E41BC902DB0229432B43CF0ADB0A0600E6
:1015C000B61A9F4104D2641EB6197F41B6185F4116
:1015D0006812800D24180018844222DAE80C0021D9
:1015E000B6197F41B61A9F4102D2B6185F413F1C1F
:1015F00040414941F4D3241C21DD2405B6197F4123
:10160000B61A9F4105D33743C60737430026012F3B
:101610007041614166463143F0BC7047FCD1F742EE
:1016200005D20020C14349054908F3E704D0002052
:10163000C143F1E77F0DFAD000206146ECE7244278
:10164000FAD1401C61410F03F6D30020E2E7F0B568
:101650000E005E400125ED072E40B446AE0ADF18AD
:101660004C18F44208D2F7420ED2640D01D07F0D1F
:1016700012D100206146F0BD05D1F74201D87F0D9F
:1016800005D10020C143F0BDFBD1640DF9D000208D
:10169000C143490549088FE0E419C902DB02294327
:1016A0002B43DB0A460DC00231438E4630B487B26D
:1016B00095B27D432E0CADB2140C7C43A419260CBC
:1016C000240425439CB27C43A419190C7943270CAC
:1016D000C919A4B20F043C43090C000C97B247434C
:1016E0002E0CBE193543ADB2170C4743360CBF194B
:1016F000A6B2BF193E043543240C3E0C36199FB2E6
:101700004743BF19BCB23E0C89191F0C47437F18D1
:101710003E043443390C704680B297B247432E0CD6
:10172000BE193543ADB2170C4743360CBF19A6B2EC
:10173000BF193E043543240C3E0C36199FB2474373
:10174000BF19BCB23E0C89191F0C47437F183E04D9
:101750003443390C77463F0C90B278432E0C8019F5
:101760000604ADB22E43050CA0B22D18120C7A431C
:101770005019020C80B2240CA4189AB27A431219A0
:1017800014042043120C89181B0C7B43C91830BC6D
:10179000EF0A394203D1B61940414941641E6F1224
:1017A000BF0DE41B0BDBFF19BC4211DA2405002737
:1017B0004208AE417841614166463143F0BD641C48
:1017C00005D1401C6141CF0201D34908F4E750E73D
:1017D0005DE7FEE7FFE741381A288041C00F7047F8
:1017E00001000939052901D3202801D101207047C2
:1017F00000207047010041391A2900D2203070477B
:101800000248704702487047000000004000002076
:1018100008000020124224D0994228D970B5002532
:101820001B4202D00C00002109E0002401264918C7
:101830006441944200D3A41A7641F8D331000126C2
:1018400001E0764109D2001864416D41A41A9D411E
:10185000F7D2A4185D41B619F5D3300022002B0051
:1018600070BD1B42D8D108B500F010F808BD01D1F9
:101870009042D3D202000B0000210020704780B5B7
:10188000012000F005F801BD7047FEE77047FEE754
:1018900080B500BF00BF024A11001820ABBEFBE7B5
:1018A0002600020010B50400002C01D1012035E013
:1018B000A0690028FFD1E06F002805D10020782121
:1018C0006054200000F0A0FF2420E067206800683A
:1018D0000121884321680860606A002802D0200046
:1018E00000F0DCFB200000F051FA012801D10120BA
:1018F00014E0206840680A4901402068416020687F
:1019000080682A2188432168886020680068012156
:10191000014320680160200000F03CFC10BD000085
:10192000FFB7FFFF30B50300D86F20283CD1002956
:1019300003D0100080B2002801D1012035E0986862
:1019400080246401A04207D11869002804D108004E
:10195000C00701D5012028E0D96450201A52522036
:101960001A520020D8660020842418512120D867FC
:10197000986880246401A04205D11869002802D12A
:101980002948D86601E02948D866EFF31080012481
:1019900084F310881C682468802525431C68256012
:1019A00080F31088002000E0022030BD70B50400F4
:1019B0000D00160080202058202833D1002D03D0A0
:1019C000300080B2002801D101202CE0A0688021E5
:1019D0004901884207D12069002804D12800C007A6
:1019E00001D501201FE000202066206810498842B0
:1019F00011D02068406800020DD5EFF3108001215E
:101A000081F31088216809688022D2040A43216882
:101A10000A6080F31088320092B22900200000F0A2
:101A20007AFC00E0022070BD05250008A52400080E
:101A300000480040FEB504002068C66920680568BB
:101A400020688768904830400290029800280AD1A8
:101A5000B00608D5A80606D5A06E002802D0200042
:101A6000A16E884789E10298002800D19BE0F80721
:101A700004D4C2482840002800D194E03000C007B8
:101A80000AD5E80508D5012021680862842020587D
:101A90000121014384202150B0070BD53800C00735
:101AA00008D50220216808628420205804210143BF
:101AB0008420215070070BD53800C00708D50420BA
:101AC000216808628420205802210143842021508B
:101AD00030070DD5A80602D43800C00708D5082065
:101AE0002168086284202058082101438420215065
:101AF00030050BD5680109D58020000121680862F6
:101B00008420205820210143842021508420205803
:101B1000002847D0B00607D5A80605D5A06E002836
:101B200002D02000A16E88478420205801902068B0
:101B30008068400604D401982821014000292BD058
:101B4000200000F069FC20688068400620D5EFF393
:101B50001080012181F31088216889684022914317
:101B60002268916080F31088606F00280CD0844850
:101B7000616F8863606F00F0B8FE002812D0606F5C
:101B8000616F896B88470DE0200000F0FDFE09E0E1
:101B9000200000F0F9FE05E0200000F0F5FE002036
:101BA00084216050E9E0206E012800D0C6E0F006F4
:101BB00000D4C3E0E80600D4C0E010202168086229
:101BC00020688068400674D56846616F0968496876
:101BD000018068460088002858D06846008858214F
:101BE000615A884252D2684600885A216052606F1A
:101BF0000068006880063BD4EFF31080012181F378
:101C00001088216809685F4A0A4021680A6080F3E9
:101C10001088EFF31080012181F310882168896812
:101C2000012291432268916080F31088EFF31080C5
:101C3000012181F31088216889684022914322683C
:101C4000916080F310882020802160500020206661
:101C5000EFF31080012181F31088216809681022B8
:101C600091432268116080F31088606F00F012FECB
:101C7000022060665820205A5A21615A411A89B2BE
:101C8000200001F008F813E00F0800006846008803
:101C90005821615A88420BD1606F00680068800645
:101CA00006D5022060665820215A200000F0F3FF7C
:101CB00063E068465821615A5A22A25A891A018063
:101CC0005A20205A002838D068460088002834D08E
:101CD000EFF31080012181F31088216809682A4AF6
:101CE0000A4021680A6080F31088EFF31080012118
:101CF00081F31088216889680122914322689160EC
:101D000080F3108820208021605000202066002071
:101D1000A066EFF31080012181F310882168096823
:101D2000102291432268116080F3108802206066BF
:101D300068460188200000F0AEFF1EE0F00209D5E1
:101D4000780207D58020400321680862200000F057
:101D5000A3FF12E0300608D5280606D5E06E00285D
:101D600002D02000E16E884707E0700605D56806BE
:101D700003D5200000F0F9FBFFE7F7BD20010004C8
:101D800091240008FFFEFFFFDFFEFFFFFEB5060007
:101D900000273068A4498842FFD0B0683169014308
:101DA00072690A43F0691043316809689F4A0A4022
:101DB000024331680A60316849689D4A0A40F16807
:101DC000114332685160B16902913168964A91427B
:101DD00003D00298316A0143029130688068AB49B0
:101DE000014002980843316888603068A8498842F9
:101DF00015D1A84800688007800F002805D0022868
:101E000005D006D3032806D007E0012545E00225CA
:101E100043E0042541E008253FE010253DE030681F
:101E20009D49884216D19B4800680C210140002939
:101E300006D0042908D0082904D00C2906D007E0D0
:101E400000252AE0022528E0042526E0082524E0D4
:101E5000102522E03068744988421DD18D48006801
:101E6000C0210901014000290CD08020C00081421E
:101E70000CD080200001814206D0C02000018142A8
:101E800006D007E0002508E0022506E0042504E06E
:101E9000082502E0102500E01025306862498842DC
:101EA00055D12800C0B2002806D0022808D0042846
:101EB0000ED0082810D012E001F04EFB040011E013
:101EC000AE480068C00601D5AD4C00E0AD4C09E05D
:101ED00001F0F2FA040005E08024240202E000246C
:101EE00001200700002C00D1C8E07068032148439E
:101EF000844205D37068802149014843A04202D240
:101F000001200700BAE020000021802252000023B7
:101F100001F054FB02000B0070684008002180189B
:101F2000594172680023FFF775FC00900098C021AA
:101F30008900884208D3009880214903884203D24F
:101F400000983168C86099E00120070096E0F069C8
:101F50008021090288424BD12800C0B2002808D055
:101F600001280AD002280CD0042812D0082814D046
:101F700016E001F0F1FA040015E001F0F9FA0400AE
:101F800011E07E480068C00601D57D4C00E07D4C24
:101F900009E001F091FA040005E08024240202E047
:101FA000002401200700002C68D0022060437168E3
:101FB000490840187168FFF792FA009000981028BD
:101FC00013D300988021490288420ED20099A64876
:101FD00008406946009A52085207520F02438A800D
:101FE000684680883168C86048E00120070045E005
:101FF0002800C0B2002808D001280AD002280CD03E
:10200000042819D008281BD01DE001F0A5FA04000F
:102010001CE001F0ADFA040018E058480068C00662
:1020200008D5574C07E000BF00480040F369FFEFB8
:10203000FFCFFFFF534C09E001F03EFA040005E03A
:102040008024240202E0002401200700002C15D087
:102050007068400820187168FFF741FA00900098F6
:10206000102809D3009880214902884204D20098A0
:1020700080B23168C86001E0012007000020B0662E
:102080000020F0663800C0B2FEBD0000FFF4FFFF84
:10209000003801404C1002400044004000B52421AB
:1020A000415C090707D501684968704A0A40416BDD
:1020B0001143026851602421415CC90707D50168BA
:1020C00049686B4A0A40816A1143026851602421C1
:1020D000415C890707D501684968664A0A40C16AB8
:1020E0001143026851602421415C490707D501680A
:1020F0004968614A0A40016B11430268516024211A
:10210000415CC90607D501688968C04A0A40816BED
:102110001143026891602421415C890607D501685A
:102120008968194A0A40C16B1143026891602421F1
:10213000415C490614D501684968144A0A40016C9B
:10214000114302685160016C80225203914207D111
:10215000016849680E4A0A40416C114302685160A7
:102160002421415C090607D501684968A84A0A404C
:10217000816C11430268516000BD000000100240F4
:1021800000093D000024F400FFDFFFFFFFFFEFFF29
:10219000FFFF9FFF38B5040000208421605001F04C
:1021A00027FA05002068006800071ED599480090AE
:1021B0002B00002280218903200000F05FF8002816
:1021C00013D0EFF31080012181F310882168096892
:1021D000802291432268116080F310882020E067FC
:1021E00000207821605403203DE02068006840070B
:1021F0002CD5884800902B0000228021C9032000A4
:1022000000F03CF8002821D0EFF31080012181F389
:102210001088216809689A4A0A4021680A6080F398
:102220001088EFF31080012181F3108821688968FC
:10223000012291432268916080F310882020802140
:10224000605000207821605403200CE02020E067DB
:102250002020802160500020206600206066002041
:1022600078216054002032BDF0FF0000FF7FFFFFA7
:10227000FFFFFDFFFFFFFEFFFFFFFBFFF4B50400C4
:102280000D001F00069E2068C0692840A84201D1A9
:10229000012000E0002069460978884239D10020F9
:1022A000C0438642EFD001F0A3F9C01B864201D3A0
:1022B000002E01D103202DE0206800684007E2D500
:1022C000802DE0D0402DDED02068C06900070DD5FC
:1022D000082021680862200000F09EF80820842170
:1022E0006050002078216054012013E02068C0690C
:1022F0000005C8D58020000121680862200000F098
:102300008BF8202084216050002078216054032025
:1023100000E00020F2BD30B50300596558201A5284
:102320005A201A5200209866986880246401A042BE
:102330000AD11869002803D152485C24185324E0BC
:10234000FF205C24185320E0986800280AD11869FF
:10235000002803D1FF205C24185316E07F205C2462
:10236000185312E0986880246405A0420AD11869C5
:10237000002803D17F205C24185306E03F205C2412
:10238000185302E000205C241853002084241851C4
:10239000222080241851EFF31080012484F3108848
:1023A0001C68A468012525431C68A56080F310887B
:1023B000986880246401A04205D11869002802D1E0
:1023C0003148986601E031489866186900280ED0B7
:1023D000EFF31080012484F310881C682468902592
:1023E0006D0025431C68256080F310880CE0EFF336
:1023F0001080012484F310881C682468202525435C
:102400001C68256080F31088002030BDFFEFFFFFBF
:10241000FFFFF7FFFFFFFF0100B5EFF3108101227F
:1024200082F3108802681268154B1340026813602B
:1024300081F31088EFF31081012282F31088026883
:10244000926801239A4303689A6081F31088016EB1
:1024500001290CD1EFF31081012282F31088026868
:10246000126810239A4303681A6081F310882021B0
:1024700080228150002101660021816600BD00009C
:10248000DFFEFFFFFF0100009126000899250008EC
:1024900038B50400A56A00205A216852280000F0CF
:1024A00073FA31BD00B5C16F21292AD15221415A99
:1024B00000291AD1EFF31081012282F310880268FB
:1024C000126880239A4303681A6081F31088EFF33F
:1024D0001081012282F3108802681268402313439E
:1024E0000268136081F310880BE0C16C0978026800
:1024F0009162C16C491CC1645221415A491E522249
:10250000815200BD10B5C26F212A2DD15222825AAC
:10251000002A1AD1EFF31082012383F31088036895
:102520001B688024A3430468236082F31088EFF3C0
:102530001082012383F3108803681B6840241C4326
:1025400003681C6082F310880EE0C26C11000A88D8
:10255000D205D20D03689A62C26C921CC2645222E8
:10256000825A521E5223C25210BD10B50400EFF31E
:102570001080012181F3108821680968402291436D
:102580002268116080F310882020E0670020E06658
:10259000200000F0E9F910BD70B504005C20255A58
:1025A0008020205822286CD12068406A0600300024
:1025B00029000140606D0170606D401C60655A200B
:1025C000205A401E5A2160525A20205A00285ED1BB
:1025D000EFF31080012181F31088216809686B4AAC
:1025E0000A4021680A6080F31088EFF3108001210F
:1025F00081F31088216889680122914322689160E3
:1026000080F310882020802160500020A0660020E8
:10261000606620685E49884210D0206840680002E9
:102620000CD5EFF31080012181F31088216809682F
:10263000584A0A4021680A6080F31088206E0128F9
:102640001BD100202066EFF31080012181F3108858
:1026500021680968102291432268116080F3108874
:102660002068C069C00602D5102021680862582081
:10267000215A200000F00FFB09E0200000F064F96F
:1026800005E020688069082101432068816170BDF0
:10269000F8B504005C20255A8020205822286CD1EF
:1026A0002068406A0600606D0700280030403880CE
:1026B000606D801C60655A20205A401E5A2160526D
:1026C0005A20205A00285ED1EFF31080012181F3B7
:1026D0001088216809682D4A0A4021680A6080F341
:1026E0001088EFF31080012181F310882168896838
:1026F000012291432268916080F31088202080217C
:1027000060500020A0660020606620682049884252
:1027100010D02068406800020CD5EFF31080012132
:1027200081F31088216809681A4A0A4021680A6002
:1027300080F31088206E01281BD100202066EFF363
:102740001080012181F310882168096810229143CB
:102750002268116080F310882068C069C00602D525
:102760001020216808625820215A200000F093FAB6
:1027700009E0200000F0E8F805E020688069082101
:10278000014320688161F1BD00000000DFFEFFFF12
:1027900000480040FFFFFFFB37480068012101436C
:1027A00035480160354800688021490501433348B8
:1027B0000160704780B50168314A91420DD13149BD
:1027C0000968802252030A432E490A602D4909688C
:1027D0008022520311400091009901BD10B5040000
:1027E00020688021C90588420DD124480068012154
:1027F000014322480160002200210F2000F06AFFFF
:102800000F2000F071FF10BD10B586B00400142237
:10281000002101A800F082FF20681B49884228D1CE
:10282000154800688021C901014313480160174819
:102830000068022101431548016014480068022124
:10284000084000900098C0200190022002900020D3
:102850000390032004900020059001A90C4800F08B
:1028600067FF002200211B2000F034FF1B2000F036
:102870003BFF06B010BD000034100240381002408B
:102880000050024030100240003801402C1002403D
:102890000004005010B5010000222520085C022829
:1028A00006D00420C86300202423C85401201BE064
:1028B000086800680E2398430B6818600868006871
:1028C000012398430B68186001204423CB5C1C242F
:1028D0001C40A0400B6C586001202523C8540020E8
:1028E0002423C8541000C0B210BD38B50400002520
:1028F0002520205C022804D00420E063012005008C
:102900001FE0206800680E21884321680860206865
:102910000068012188432168086001204421615C2E
:102920001C220A409040216C4860012025216054FF
:10293000002024216054A06B002802D02000A16B4D
:1029400088472800C0B232BD10B50400C248844296
:1029500009D19D4801789D4801F000F801229A496B
:10296000BD48FFF723F810BD10B50400BA488442F3
:1029700009D10020B9490870002280214901A02016
:10298000C00500F0CAFF10BD10B50400B248844273
:1029900009D1002280214901A020C00500F0BDFF1F
:1029A0000020AE49087010BD00B501688022D20534
:1029B00091420BD1AA490968491CA94A1160A8494A
:1029C0000968642902D30021A64A118000BD80B5A0
:1029D00001F056F900F02EF800F0FAF800F08BF84C
:1029E00000F0CAF800F07BF89F48A04908609F48B3
:1029F00001F05EF99E4801F0DCF99C499D4801F028
:102A000091FB012280214901A020C00500F085FF33
:102A1000162299499048FEF785FF01226A498E489F
:102A2000FEF7C4FF8C49694801F026F9674801F0B8
:102A300020F8FBE710B59CB0382100220EAC200036
:102A400001F0DEFB142100226C46200001F0D8FBCF
:102A50002421002205AC200001F0D2FB8748006849
:102A60008749014080200001084384490860012013
:102A70000E90802040020F9002201890802040028B
:102A80001990C02000031A908020C0031B900EA84C
:102A900000F004F9002801D000F0FAF80F200090AF
:102AA0000320019000200290002003900020049059
:102AB0000121684600F002FC002801D000F0E8F88F
:102AC000412005900020089000200D9005A801F0FD
:102AD000BFFB002801D000F0DBF81CB010BD80B5B2
:102AE000614862490860614801F0E2F8002801D0BD
:102AF00000F0CEF801BD10B586B01021002202AC66
:102B0000200001F07DFB082100226C46200001F02E
:102B100077FB8020C005564908601F205449486053
:102B200000205349886057485149C86000205049E7
:102B3000086100204E4948614D4801F00FF9002816
:102B400001D000F0A5F880204001029002A9484879
:102B500001F0F7F9002801D000F09AF80020009069
:102B6000002001906946424801F0ACFC002801D0E9
:102B700000F08EF806B010BD80B5434836490860B5
:102B80009620C00134494860002033498860002005
:102B90003149C8600020304908610C202E49486145
:102BA00000202D49886100202B49C86100202A4956
:102BB00008620020284948622748FEF773FE002873
:102BC00001D000F065F801BDDC1300204C0D0020A1
:102BD00010B586B01421002201AC200001F010FBDA
:102BE0002A4800688021014328480160274800687E
:102BF000802108400090009824480068012101438A
:102C000022480160214800680100C907C90F0091EE
:102C100000981E480068022101431C4801601B48BF
:102C2000006802210840009000980022802149019C
:102C3000A020C00500F071FE80204001019001201D
:102C40000290002003900020049001A9A020C0055C
:102C500000F06EFD06B010BDF8120020EC1200204E
:102C6000E40E0020E20E002000500240C0130020BD
:102C7000801300208C000020444B000800700040AE
:102C8000FFE7FFFFE7030000003801402C1002407F
:102C900000B572B6FEE770477047FEE7F8B584B03E
:102CA0000400002C01D10120EEE2B24800680C279C
:102CB0000740B04800688021490208400190207810
:102CC000C00764D5082F06D00C2F0DD101988021A4
:102CD0004902884208D1A8480068800357D5606837
:102CE000002854D10120CFE2606880214902884247
:102CF00007D1A14800688021490201439E48016034
:102D000026E06068A021C90288420ED19A48006876
:102D10008021C902014398480160974800688021DA
:102D2000490201439448016012E0934800689349C6
:102D300001409148016090480068802149020840A4
:102D4000039003988C4800688D4901408A480160CF
:102D5000606800280DD000F04BFC05008648006834
:102D6000800314D400F044FC401B6528F6D30320F4
:102D70008AE200F03DFC05007F480068800306D52C
:102D800000F036FC401B6528F6D303207CE2207857
:102D9000800772D5E0680290042F04D00C2F35D143
:102DA0000198002832D174480068400704D5029881
:102DB000002801D1012067E2B7480068B749014007
:102DC000206900020843B44908606B480068092183
:102DD0008843029901436848016000F06DFBB049E7
:102DE000644A126812091207120F895CC840C4496C
:102DF0000860C448006801F09DFB69460870684699
:102E00000078002839D0684600783DE20298002812
:102E10001FD0594800680921884302990143564848
:102E2000016000F0E5FB050053480068400706D448
:102E300000F0DEFB401B0328F6D3032024E2964873
:102E400000689649014020690002084392490860E1
:102E500013E049480068012188434749086000F0B1
:102E6000C7FB050044480068400706D500F0C0FBDA
:102E7000401B0328F6D3032006E22078C00600D4C6
:102E800080E0002F38D13C480068800504D5E06917
:102E9000002801D10120F7E17F4800689A490140EC
:102EA000606A08437C4908607B4800680002000AA9
:102EB000216A09060143784801600120616A490BD3
:102EC000491C88408021090248437549294A1268F3
:102ED00012091207120F895CC840894908608948A5
:102EE000006801F027FB69460870684600780028F2
:102EF00048D068460078C7E1E069002826D01E481F
:102F000000688021490001431B48016000F070FB0C
:102F1000050019480068800506D400F069FB401BD5
:102F20000328F6D30320AFE15B48006876490140EF
:102F3000606A084358490860574800680002000A60
:102F4000216A09060143544801601BE00A480068F1
:102F5000BC4901400848016000F04AFB05000648F2
:102F6000006880050ED500F043FB401B0328F6D314
:102F7000032089E10C10024000100240FFFFFEFF19
:102F8000FFFFFBFF207800072AD56069002813D0D7
:102F9000BE48006801210143BC48016000F028FBE5
:102FA0000500BA48006880071AD400F021FB401BD6
:102FB0000328F6D3032067E1B44800680121884361
:102FC000B249086000F014FB0500B04800688007B3
:102FD00006D500F00DFB401B0328F6D3032053E178
:102FE0002078400700D49BE00026A9480068C00074
:102FF00008D4A7480068802149050143A44801601E
:1030000001200600A3480068C00514D4A148006848
:103010008021490001439F48016000F0E9FA050062
:103020009C480068C00506D400F0E2FA401B652801
:10303000F6D3032028E1A06880214900884207D107
:10304000924800688021490001439048016035E0C2
:10305000A06800280CD18D4800687A4901408B484F
:1030600001608A4800688C4901408848016025E079
:10307000A068A021C900884214D18448006880213A
:10308000C9000143814801608048006880214900EF
:1030900001437E48016011E004100240FFE0FFFFA1
:1030A0006C4B000879480068664901407748016028
:1030B000764800687849014074480160A06800289B
:1030C0000ED000F095FA05007048006880051DD408
:1030D00000F08EFA401B71498842F5D30320D3E0FB
:1030E00000F086FA05006948006880050ED500F0FA
:1030F0007FFA401B69498842F5D30320C4E000BF32
:103100000400002000000020FF1FFFFF3000C0B2BD
:10311000012805D15E480068614901405C480160B2
:10312000207880063DD5A069002820D05D48006841
:10313000012101435B4801605B48006801210143B4
:103140005948016059480068802189010143574866
:10315000016000F04DFA050052480068800720D455
:1031600000F046FA401B0328F6D303208CE04D48BC
:103170000068012188434B4908604C4800684C496D
:1031800001404A48016000F033FA050045480068F4
:10319000800706D500F02CFA401B0328F6D3032045
:1031A00072E0A06A00286ED00C2F4DD0A06A0228D1
:1031B00034D140480068404901403E48016000F079
:1031C00017FA06003B480068800106D500F010FAA7
:1031D000801B0328F6D3032056E0B2480068B249AA
:1031E0000140E06A0843216B0143606B0843AD492D
:1031F0000860304800688021490401432D4801607F
:1032000000F0F6F905002B48006880013BD400F07F
:10321000EFF9401B0328F6D3032035E0254800686A
:10322000254901402348016000F0E2F905002148EA
:103230000068800127D500F0DBF9401B0328F6D396
:10324000032021E0FFFEFFFFA06A012801D1012039
:103250001AE09448006801900198802149020840D2
:10326000E16A88420DD10198F02189030140206B69
:10327000814206D10198C02109040140606B81425E
:1032800001D0012000E0002005B0F0BD5010024048
:103290003810024000700040FFFBFFFF8913000060
:1032A000FFFFFFEF081002403410024020000140F1
:1032B000FFDFFFFF00100240FFFFFFFE70B50500BB
:1032C0000C00002D01D10120EAE0784800680100DF
:1032D000C907C90FA14218D2744800680121884368
:1032E00020437249086000F083F906006F480068C7
:1032F0000100C907C90FA14207D000F079F9801B6E
:103300006B498842F2D30320CAE02878800707D5AA
:1033100064480068F0218843A9680143614801605E
:103320002878C0076CD56868022805D16148006814
:10333000800319D40120B3E06868032805D15D48F3
:103340000068800110D40120AAE06868012805D136
:1033500058480068400707D40120A1E0554800689C
:10336000800501D401209BE04E480068032188437A
:10337000696801434B48016000F03AF9060068684B
:1033800002280DD1474800680C210140082937D098
:1033900000F02EF9801B46498842F3D303207FE0DA
:1033A000686803280DD13F4800680C2101400C29B2
:1033B00026D000F01DF9801B3D498842F3D303203D
:1033C0006EE0686801280DD1364800680C21014084
:1033D000042915D000F00CF9801B35498842F3D33D
:1033E00003205DE02F4800680C210140002907D030
:1033F00000F0FEF8801B2E498842F3D303204FE0F3
:103400002A4800680100C907C90F8C4218D2274812
:1034100000680121884320432449086000F0E8F84F
:103420000600224800680100C907C90FA14207D061
:1034300000F0DEF8801B1E498842F2D303202FE003
:103440002878400707D5174800684F490140E868C9
:103450000843144908602878000708D51148006817
:103460004A4901402869C00008430E49086000F03D
:1034700023F847490B4A126812091207120F895C98
:10348000C840444908604448006801F053F801000E
:103490000800C0B2002802D00800C0B200E000203E
:1034A00070BD00000C100240FFFF02FF0020024030
:1034B0008913000000100240F8B5384807680C2056
:1034C0003840042804D008280AD00C280AD032E05A
:1034D00033480068C00601D5324800E0324837E082
:1034E000324835E03248B90C0907090F405C040046
:1034F000B80D8007800F401C050028480068C003F5
:1035000006D52A4860432900FDF7E9FF060010E0D0
:1035100023480068C00606D5224860432900FDF70D
:10352000DEFF060005E0204860432900FDF7D7FFD5
:10353000060030000CE01F480068400B4007400FB9
:10354000009001200099491C8840802109024843CD
:10355000F2BD10480068704780B5FFF7FAFF1649C2
:103560000E4A1268120A5207520F895CC84002BD07
:1035700080B5FFF7EEFF1049084A1268D20A5207D9
:10358000520F895CC84002BDFFF8FFFFFFC7FFFF75
:103590006C4B000804000020000000200C100240CA
:1035A0000010024000093D000024F40000127A00DF
:1035B000984B000804100240C44B000830B4434349
:1035C00051435D18010C0C00130C5C432D1980B2A3
:1035D000434392B251430024C918644124040B04AC
:1035E000090C09195043C018694130BC7047FEE707
:1035F00001480068704700BFD013002000B50100EB
:1036000049B2002905D40121C206D20E91403D4A9B
:10361000116000BDF0B5020052B2002A1DD43A4A32
:1036200003005BB29B0804246343D258FF23840742
:10363000A40F08256C43A3409A438B01DBB2840797
:10364000A40F08256C43A34013432F4A040064B21F
:10365000A40804256C43135122E02C4A03005BB2FA
:103660001B071B0F083B9D0804235D43274B0400E9
:1036700064B22407240F083CA408042674431B5991
:10368000FF248607B60F08277E43B440A3438C016E
:10369000E4B28607B60F08277E43B4401C4354515A
:1036A000F0BD10B50400601E80214904884201D39A
:1036B00001200EE0601E1649086003210020C0436F
:1036C000FFF7A8FF0020134908600720124908608F
:1036D000002010BD70B505000C0016002100280068
:1036E00040B2FFF797FF70BD10B50400200040B254
:1036F000FFF784FF10BD10B504002000FFF7D1FFD5
:1037000010BD000000E100E000E400E01CED00E07E
:1037100014E000E018E000E010E000E010B5040064
:10372000080011000200200000F06AFD200010BD1A
:10373000F0B50022002300240D68D540002D00D1F3
:10374000EAE00D68012696402E403300002B00D1A0
:10375000E0E00D79AD07AD0F012D04D00D79AD0777
:10376000AD0F022D1FD187680325AC461600022538
:103770006E436546B540AF43CD68AC4616000225A2
:103780006E436546B5403D438560476801269640D7
:10379000B743BC464F683E00F606F60F96406746B4
:1037A0003E43340044600D79AD07AD0F032D12D0B8
:1037B000C6680325AC46170002256F436546BD4029
:1037C000AE438F68BC46150002277D436746AF4075
:1037D00037433C00C4600D79AD07AD0F022D1ED1FB
:1037E000D5080426754345192E6A0F27BC461500D7
:1037F0006D076D0F04277D436746AF40BE430D69DB
:10380000AC4615006F077F0F04256F436546BD402A
:1038100035432C00D5080426754345192C620668EB
:103820000325AC46170002256F436546BD40AE43F5
:103830000D79AF07BF0FBC46150002277D436746D1
:10384000AF4037433C0004604D68C026B6022E40AE
:10385000002E5FD0374D2D6801262E43354D2E604A
:10386000354D960804277E43AE590F27BC461500F8
:10387000AD07AD0F04277D436746AF40BE43A0258B
:10388000ED05A84201D1002414E02C4CA04201D146
:1038900001240FE02A4CA04201D102240AE0294C65
:1038A000A04201D1032405E0274CA04201D1052408
:1038B00000E006241500AD07AD0F04277D43AC40A2
:1038C00034431D4D960804277E43AC511F4D2D688F
:1038D0009D434E68F60200D51D431C4C25601C4CD0
:1038E00024689C434E68B60200D51C43184D2C60DA
:1038F000184D2D689D434E68B60300D51D43154CE9
:103900002560154C24689C434E68F60300D51C4383
:10391000114D2C60521C0FE7F0BD00B51300DBB257
:10392000002B03D00B009BB2836102E00B009BB223
:10393000836200BD341002400800014000040050C2
:1039400000080050000C0050001C0050080401400A
:103950000C0401400404014000040140F3B581B0AF
:103960000400CB204000205A0100491CCB22520009
:10397000A1526946097A80B221540120CC21490024
:1039800060506846007A0A2804D0CB204000205AB4
:10399000FF286DD30020CB214900615A60540020DC
:1039A000CB2149006052962700262500FF353200C2
:1039B0003900280000F024FCA4A1200000F0E2FD62
:1039C0000500A349280000F00BFE002847D19FA165
:1039D000002000F0D7FD05009E49280000F000FE01
:1039E00000281AD199A1002000F0CCFD0500280084
:1039F00000F0F4FE0021C943884206D09649605089
:103A00000121B422D200A15429E00021B422D20025
:103A1000A1540021904AA15021E09049280000F0D3
:103A2000DFFD002807D10220B421C9006054002026
:103A30008949605013E08A49280000F0D1FD002830
:103A40000DD10320B421C900605480A1002000F0F2
:103A500099FD0500280000F0C1FE7F496050FF205D
:103A600000900026270032000099380000F0C8FBC3
:103A7000F7BD38B588B00400B420C000205C002831
:103A800005D0022819D003D3032833D056E055E0DF
:103A90007448205870496158884203D26E482058B3
:103AA000704960506F4822586F492000FF3000F085
:103AB0009DFE200000F044F840E068466B4920225B
:103AC000FDF736FBB320C00023186648221869466C
:103AD000B320C0002058042568432018CE256D006F
:103AE000405900F04EFBB320C0002158200000F0E8
:103AF0003FF823E00025FF2D17DA04206843201843
:103B0000CE2149004058006A5349615888420AD181
:103B1000042068432018CE2149004058016A200043
:103B200000F026F80AE06D1CE5E751492000FF305F
:103B300000F05CFE200000F003F8FFE709B030BDA4
:103B400038B504002000FF30FDF7DEFA0500012241
:103B500080214901A020C005FFF7DFFE2A0092B2B4
:103B60002100FF31B520C0002058FDF7DBFE31BD3C
:103B700070B588B004000D00042068432018CE21E1
:103B800049004058406A0790042068432018CE211D
:103B900049004058C0690690042068432018CE218F
:103BA0004900405880690590042068432018CE21C0
:103BB0004900405840690490042068432018CE21F1
:103BC0004900405800690390042068432018CE2122
:103BD00049004058C0680290042068432018CE2154
:103BE0004900405880680190042068432018CE2185
:103BF0004900405840680090042068432018CE21B6
:103C0000490040580368042068432018CE21490029
:103C10004058026A17492000FF3000F0E7FD2000FD
:103C2000FF30FDF771FA0600012280214901A02032
:103C3000C005FFF772FE320092B22100FF31B520BD
:103C4000C0002058FDF76EFE08B070BD2E000000C9
:103C5000A44B0008AC4B0008A4050000B44B0008BE
:103C6000BC4B00089C0500005C4B0008D04A0008D3
:103C70008C4B00085C4A0008B522D2008150704786
:103C800010B500240948006840210143074801603D
:103C9000002000F04FFC002802D00120040001E0C9
:103CA000FEF77AFD2000C0B210BD000000200240E7
:103CB00010B50400002C01D1012014E06079002827
:103CC00004D1002020712000FEF774FD02206071F5
:103CD00020680068042101432068016001206071B0
:103CE0000020A060002010BDF8B504000F000026E1
:103CF0002079012801D102202EE001202071607975
:103D0000012821D102206071FFF772FC05002068B4
:103D10004068C00710D4FFF76BFC401B0328F6D3A4
:103D200020684068C007F2D4012060710220A060C2
:103D30000020207101200FE020688068E060E068CA
:103D400038600120607103E00420A06001200600BB
:103D5000002020713000C0B2F2BDFEE710B50400B3
:103D6000002C01D1012023E03920205C002805D15E
:103D70000020382160542000FEF730FD0220392158
:103D80006054211D206800F05BF901203E21605441
:103D900001203A21605401203B21605401203C2144
:103DA000605401203D2160540120392160540020DD
:103DB00010BD00B501003920085C012801D00120A8
:103DC0002AE002203923C8540868C068012303434D
:103DD0000868C36008688023DB05984207D008683C
:103DE0000E4B984203D008680D4B98420DD10868DD
:103DF00080684007400F0200062A0CD0086800685F
:103E0000012303430868036005E008680068012394
:103E1000034308680360002000BD00000008014063
:103E20000014014070B504002068C5682068066968
:103E3000B00719D5A80717D50220C043216808612B
:103E400001202076206880698007800F002803D039
:103E5000200000F0EBFC05E0200000F0E8FC200072
:103E600000F0E6FC0020207670071AD5680718D508
:103E70000420C04321680861022020762068806900
:103E8000C02189000140002903D0200000F0CEFCB1
:103E900005E0200000F0CBFC200000F0C9FC002071
:103EA0002076300719D5280717D50820C043216888
:103EB0000861042020762068C0698007800F0028F0
:103EC00003D0200000F0B2FC05E0200000F0AFFCC1
:103ED000200000F0ADFC00202076F0061AD5E806A0
:103EE00018D51020C043216808610820207620687A
:103EF000C069C02189000140002903D0200000F0E2
:103F000095FC05E0200000F092FC200000F090FC01
:103F100000202076F00708D5E80706D50120C04329
:103F2000216808612000FEF73FFD700608D568068D
:103F300006D54020C04321680861200000F079FCCC
:103F400070BDF8B504000D0000263820205C012863
:103F500001D1022071E00120382160540220392172
:103F600060542068806877218843344F0740206878
:103F700087602868002851D010284FD020284DD0C5
:103F800030284BD040283FD0502829D0602831D04D
:103F9000702809D080214901884204D080218901FC
:103FA00088420FD03FE040E0EB686A68A96820686B
:103FB00000F0A6F820688068772101430F00206890
:103FC000876032E0EB686A68A968206800F098F8BA
:103FD000206880688021C90101432068816024E055
:103FE000EA686968206800F05AF85021206800F0FB
:103FF0007FF81AE0EA686968206800F062F86021DA
:10400000206800F075F810E0EA686968206800F040
:1040100046F84021206800F06BF806E02968206827
:1040200000F066F801E0012006000120392160540B
:104030000020382160543000C0B2F2BDFF00FFFF05
:1040400010B502688023DB05984205D0264B9842C4
:1040500002D0264B984204D170239A4313004A6839
:104060001A438023DB05984205D01F4B984202D0AB
:104070001E4B984203D1284B1340CA681A43802331
:104080009A430B6913438A68C2620A6882620268B3
:1040900004241443046001224261036010BD30B463
:1040A000036A046A0125AC4304628469F025AC43C9
:1040B000150125430A24A3430B438561036230BCE9
:1040C000704730B4036A046A1025AC430462846903
:1040D000124D254014032C43A025AB430D011D4375
:1040E0008461056230BC7047000801400014014043
:1040F000826870239A430A430723134383607047FF
:1041000030B48468064D25400D4315431C022C43F2
:10411000846030BC70470000FFFCFFFFFF0FFFFF13
:10412000FF00FFFF70B504000E0031482650002547
:10413000082D25DA0C20684320182E4945502E49B9
:10414000200000F03AF80C21694361182B4A88508E
:104150000C2068432018274940580C2169436118F6
:1041600048600C2068432018244940580C216943BA
:1041700060501E482058401C1C4960506D1CD7E7F9
:1041800070BD70B5146804620024082C07DA042599
:1041900065434D59042666438551641CF5E7FF24A9
:1041A00044621C68641C1C601C68FF2C01D900243C
:1041B0001C601468641C146070BD7CB506000C00A3
:1041C000002569460A483058FFF78EFD0098002800
:1041D00004D500980021C943484300E0009821001D
:1041E000FDF77AF9080076BD00000000B40C00006D
:1041F000BC0C0000F80B000010270000F40B0000BE
:104200001206130A1A43130C1A4300BF094205D0C1
:10421000830705D00270401C491EF9D17047000089
:104220001300103906D330B41400150010393CC007
:10423000FCD230BC490700D30CC000D504C08900B3
:1042400002D30280801C002900D502707047FEE76F
:10425000F8B50400002620688221090101400029E8
:1042600000D1CEE0207880062068000587480068ED
:10427000C00008D48548006880214905014383486F
:1042800001600120060082480068C00514D48048FF
:1042900000688021490001437D480160FFF7A8F9CB
:1042A00007007B480068C00506D4FFF7A1F9C01BD2
:1042B0006528F6D30320E7E076480068C02189032B
:1042C00001406068C02292030240914205D1A0687B
:1042D000C0229203024091420DD06068C022920237
:1042E0000240C0208002824205D16A4800688003F3
:1042F00001D50120C8E068480068C025AD0205402E
:10430000002D36D06068C021890201408D4202D064
:104310002078800608D4A068C021890201408D421F
:1043200027D02068000524D55B4800685B49014020
:104330000D00594800688021090301435648016077
:10434000554800685649014053480160524805608D
:10435000E8050ED5FFF74CF907004F4800688005C7
:1043600007D4FFF745F9C01B4E498842F5D3032017
:104370008AE0206800051BD5A068C02189020140A1
:10438000C020800281420AD142480068464901406B
:10439000A068C022920302400A433E4802603E48A1
:1043A0000068A168C02292020A4002433A480260B3
:1043B000207880061BD56068C02189020140C0209A
:1043C000800281420AD13348006837490140606861
:1043D000C022920302400A432E4802602E48006821
:1043E0006168C02292020A4002432B4802603000FA
:1043F000C0B2012805D1254800682C490140234856
:1044000001602078C00707D5294800680321884348
:10441000E1680143264801602078800707D52448D9
:1044200000680C21884321690143214801602078FC
:10443000400707D51E4800681E49014060690843CF
:104440001B4908602078000707D5194800681A49F9
:104450000140A0690843164908602078400607D546
:104460001348006815490140206A08431049086054
:104470002078000607D50E48006811490140E06920
:1044800008430B4908600020F2BD000038100240CC
:10449000007000400010024050100240FFFFFCFF7F
:1044A000FFFFF7FF89130000FFFFCFFFFFFFFFEFC4
:1044B0004C100240FFF3FFFFFFCFFFFFFFFFFFFBAA
:1044C000FFFFF3FF30B502003820105C012801D156
:1044D00002202AE001203823D05402203923D0546E
:1044E0001068406813689B687024A0430C680443FC
:1044F0001068446010688025ED05A84207D0106858
:104500000A4DA84203D01068094DA84206D1802068
:10451000834318004B6803431068836001203925EA
:104520005055002038255055002030BD000801406E
:104530000014014010B50400FA2080000E490978EB
:10454000FCF7CDFF01000D480068FCF7C8FFFFF73E
:10455000D2F8002801D001200CE0042C09D200225E
:1045600021000020C043FFF7B5F805480460002093
:1045700000E0012010BD00BF8800002004000020E2
:104580000000002038B505000AD00C00280000F01B
:1045900051F92D182878002808D10C49086032BD3F
:1045A0000A480568002DF0D1002032BD2100280006
:1045B00000F052F928180178002902D0002101707A
:1045C000401C02490860280032BD00BFD4130020FF
:1045D00002780B78002A4CD0401C491C9A4248D1E2
:1045E0008A07F5D1820727D170B4284CE50104C8A9
:1045F00008C9161B96432E4208D19A42F7D070BCC8
:1046000012BA1BBA9A4280414041704770BC12BA3C
:104610001BBA100E0BD0FF21100C084208D0100A54
:10462000084206D0D01A01D08041404170471B0A91
:104630001B0A1B0AC01A704703781A0613D0437866
:104640001B041A4412D083781B021A4413D0C37877
:104650001B421A4415D008C9001D1BBA9A42EBD060
:104660008041404170470A78981A70470B88120CB5
:104670005BBAD01A70470B68120A1BBA1B0AD01A11
:1046800070470B681BBAD01AEAD1704701010101CB
:10469000FCB587B00C001500002B01D0002119607B
:1046A0000390064600E0761C307800F0E7F800281A
:1046B000F9D1300001782D2901D02B2903D16A4688
:1046C0001170401C02E02B216A4611700194002DEC
:1046D00003D4012D01D0252D04DB002C54D00398E8
:1046E000206051E0002D0ADD102D16D1017830290F
:1046F00013D1417820220A43782A0ED10AE00178AA
:10470000302901D00A2508E0417820220A43782A7E
:1047100002D11025801C00E00825069000E0401C16
:1047200001783029FBD0002405902B4A7A44A83226
:1047300028326B465A700295049F05000494264E59
:104740007E44943608E0049469464978471AFFB2DB
:1047500002984443E4196D1C287800F098F8029AF6
:10476000010030002830FCF7D7FC0028EBD102997B
:1047700038002F00049D069ABA4207D101980028FC
:1047800002D0039801990860002022E0059ABA1A25
:10479000735CD21A002A11D405DC201A03D3FCF76B
:1047A0009EFEA8420AD000BF00BF0898002802D091
:1047B0000120089908600024E44305E06846007879
:1047C0002D2801D1604204000198002800D0076024
:1047D000200009B0F0BD00BFB001000080B5FFE7C8
:1047E00000230A220021FFF753FF02BD0CB418B5C5
:1047F00083B004000A0006A80290019400200090F3
:1048000002AB01A9084878441E30FBF759FC00218F
:10481000019A1170002801D40198001B04B001997D
:1048200010BC03B0084700BF8FC8FFFF7047704738
:104830007047704730B4020000E0521C1378002B20
:1048400007D00D0002E0A342F7D06D1C2C78002C9D
:10485000F9D1101A30BC704730B4020006E0A5420E
:1048600009D05B1C1C78002CF9D1521C1578002D46
:1048700001D00B00F6E7101A30BC704710B50400E9
:10488000FCF7BEFF01002000096A884710BD10B583
:104890000400FCF7B5FF01002000896A884710BDBD
:1048A000F1B40168421841684808131800988068FC
:1048B000C9071DD5494640181AE01778521C0770E1
:1048C000401C761EF9D1002C12D01678521C890893
:1048D0000D40032D01D11578521C290271184D424B
:1048E0004119A41C0D78491C0570401C641EF9D1A7
:1048F0009A420FD01178521C03250E002E4002D18F
:104900001678F61C521C0C090F2CDAD114780F34CF
:10491000521CD6E700980C30F2BC7047686A6C7481
:104920007A4C00007072696E74665F733A20256E6F
:1049300020646973616C6C6F776564007072696E76
:1049400074663A2062616420256E20617267756D1D
:10495000656E74007072696E74665F733A2062618E
:104960006420257320617267756D656E74000000A8
:10497000000000006E616E004E414E00696E6600E0
:10498000494E46003000FEE700002115110E0D0CC7
:104990000B0B0A0A09090909090808080808080888
:1049A00007070707070707070707070707000000AC
:1049B0003031323334353637383961626364656695
:1049C0006768696A6B6C6D6E6F70717273747576FF
:1049D0007778797A0000000070B40123002413E096
:1049E0000168001D194202D04D466918491E0C602D
:1049F000091D121F042AFAD20D00960701D50C805A
:104A0000AD1C1A4000D02C700268001D002AE7D1AE
:104A100070BC704700B5FEE700B5FEE77047704711
:104A200080B500F00FF801BD80B50448FFF7FAF932
:104A300001BD80B50248FCF7FDFF01BD80130020D9
:104A4000F81200200348006803490978401801491A
:104A500008607047D013002088000020566F72470E
:104A60002E53454E442E25692E25692E25692E2567
:104A7000692E25692E25692E25692E25692E256921
:104A80002E25692E0A00000010B507497944183117
:104A9000064C7C44163404E0081D0A6889188847CF
:104AA0000100A142F8D110BD080000002400000060
:104AB00029FFFFFF541300008C00002000000000BD
:104AC000E1FDFFFF270100006E0000000000002054
:104AD00000000000010000000200000003000000D0
:104AE00004000000050000000600000007000000B0
:104AF00000F00DF8002801D0FFF7C6FF00BF00BF8F
:104B0000002000BF00BFFDF762FF00F002F80120A7
:104B1000704780B500F002F801BDFEE70746384651
:104B2000FCF7B6FEFBE7FEE70548014603B468461E
:104B300080F3098800BF00BF00BF00BFFFF7D8FFA8
:104B4000A5EDF5FE566F72472E4C4F4144494E4439
:104B50005F4445564943452E0A000000566F724790
:104B60002E4F4B2E25692E0A000000000000000089
:104B700000000000010203040607080901488047FD
:104B800001480047E94B0008294B0008566F72475F
:104B90002E4E4F4E452E0A00030406080C10182016
:104BA00030000000566F724700000000535441521D
:104BB000540000004E455854000000005245504536
:104BC000415400000000000001020304FEE7FEE77C
:104BD000FEE7FEE7FEE7FEE7FEE7FEE7FEE7FEE7AD
:104BE000FEE7FEE7FEE7FEE770470023040001F062
:104BF00004072000EA4B00080452FF01E3161114D9
:104C0000100100002E14120144220845F102011087
:104C100003E1170008D50412F504F1032052011531
:024C200002018F
:0400000508004B297B
:00000001FF
